:060000000A128A110C280F
:10000800FE00030EFA000A08FB000A128A15AD2B3F
:100018000A128A110F288313AF30FD000B30FE003F
:100028007630FF00A03084000A128A1589230A124C
:100038008A1183160313B801B901BA01BB01F00193
:10004800F101F201F301F401F50183010A128A11A9
:10005800522FFF0000308A007F08820732280A12D8
:100068008A15C62C0A128A15902C0A128A15322C67
:100078000A128A112E2E0A128A157A2D0A128A1548
:10008800672B8312031331088039B6003608BB008A
:100098003108B6003607B7003708C100B01F552829
:1000A800562857284114410803195B285C286B28F7
:1000B800410A031D6028612869280030B10000301A
:1000C800B0000030AF000030AE00B0177328003029
:1000D800B1000030B0000030AF000030AE0035088D
:1000E8008039B6003608BB063508B6003607B700B3
:1000F8003708BC00B41F8128822883283C143C0898
:1001080003198728882897283C0A031D8C288D28DE
:1001180095280030B5000030B4000030B30000303E
:10012800B200B4179F280030B5000030B40000308A
:10013800B3000030B2003C080319A328A428A9285A
:100148004108031DA828A928B2280030B1000030B2
:10015800B0000030AF000030AE00A52B2E08B6006E
:100168003608A00034080A128A1509240A128A11CE
:10017800831203132108C7002008C6004608B600EA
:10018800B701B801B9013908C0003808BF003708FD
:10019800BE003608BD004708B600B701B801B9016E
:1001A8003908C5003808C4003708C3003608C2003B
:1001B8002F08B6003608A00033080A128A15092449
:1001C8000A128A11831203132108C7002008C600E7
:1001D8004608B600B701B801B9013608BD073708A7
:1001E80003110318013E0319FA28BE073808031142
:1001F8000318013E03190129BF0739080311031821
:10020800013E03190829C0074708B600B701B8011D
:10021800B9013608C207370803110318013E03194C
:100228001629C307380803110318013E03191D29AD
:10023800C407390803110318013E03192429C50707
:100248003008B6003608A00032080A128A150924B8
:100258000A128A11831203132108C7002008C60056
:100268004608B600B701B801B9013608BD07370816
:1002780003110318013E03194229BE073808031168
:100288000318013E03194929BF0739080311031848
:10029800013E03195029C0074708B600B701B80145
:1002A800B9013608C207370803110318013E0319BC
:1002B8005E29C307380803110318013E031965298D
:1002C800C407390803110318013E03196C29C5072F
:1002D8000830B6000310BD0DBE0DBF0DC00DB60B26
:1002E8006E292F08B6003608A00032080A128A15AF
:1002F80009240A128A11831203132108C70020084F
:10030800C6004608B6004708B700B801B901360864
:10031800BD07370803110318013E03199429BE07C6
:10032800380803110318013E03199B29BF07390830
:1003380003110318013E0319A229C0072E08B600AD
:100348003608A00033080A128A1509240A128A11ED
:10035800831203132108C7002008C6004608B60008
:100368004708B700B801B9013608BD0737080311B7
:100378000318013E0319C129BE07380803110318E1
:10038800013E0319C829BF07390803110318013EA4
:100398000319CF29C0070830B6000310BD0DBE0DE4
:1003A800BF0DC00DB60BD1292E08B6003608A00027
:1003B80032080A128A1509240A128A1183120313B1
:1003C8002108C7002008C6004608B6004708B7003D
:1003D800B801B9013608BD07370803110318013EF3
:1003E8000319F729BE07380803110318013E03193A
:0803F800FE29BF0739080311BB
:100400000318013E0319052AC0072F08B600360855
:10041000A00034080A128A1509240A128A118312CC
:1004200003132108C7002008C6004608B600470885
:10043000B700B801B9013608C2073708031103181D
:10044000013E0319242AC307380803110318013E8B
:1004500003192B2AC407390803110318013E031995
:10046000322AC5073008B6003608A00033080A1241
:100470008A1509240A128A11831203132108C7005E
:100480002008C6004608B6004708B700B801B90101
:100490003608C207370803110318013E0319512A11
:1004A000C307380803110318013E0319582AC4076B
:1004B000390803110318013E03195F2AC5073008E4
:1004C000B6003608A00034080A128A1509240A1258
:1004D0008A11831203132108C7002008C6004608AA
:1004E000B6004708B700B801B90108300310B60DCF
:1004F000B70DB80DB90DFF3E031D762A3608C207A9
:10050000370803110318013E0319872AC307380867
:1005100003110318013E03198E2AC4073908031179
:100520000318013E0319952AC5073D08B6003E0889
:10053000B7003F08B8004008B90018300310B90CE4
:10054000B80CB70CB60CFF3E031D9E2A3608C20736
:10055000370803110318013E0319AF2AC3073808EF
:1005600003110318013E0319B62AC4073908031101
:100570000318013E0319BD2AC5070830B600031051
:10058000BD0DBE0DBF0DC00DB60BBF2A41083C0707
:10059000B600B701B70D3608823EC600370803180B
:1005A000013EFF3EC700F12A0130B6000310C20D24
:1005B000C30DC40DC50DB60BD62AC01FE02AE12A13
:1005C000E22A42140130B6000310BD0DBE0DBF0D6E
:1005D000C00DB60BE42AFF30C6070318C70AFF3068
:1005E000C707C41FF42AF52AD42ABC01C01FF92A60
:1005F000FA2A162BFF303D05B600FF303E05B70046
:10060000FF303F05B8007F304005B9003908380495
:100610003704360403190D2B0E2B112BBC01BC0A19
:10062000162B421C142B152B162B0E2B3C080319D2
:100630001A2B1B2B4C2B0130C20700300318013042
:10064000C307003003180130C4070030031801301D
:10065000C507451C2C2B2D2B4C2B4208B6004308FC
:10066000B7004408B8004508B9000130BA00390D98
:10067000B90CB80CB70CB60CBA0B372B3908C5003F
:100680003808C4003708C3003608C2000130C60766
:100690000318C70A0030C7074708803AFF008030B8
:1006A0007F02031D552BFF304602031C582B592B8C
:1006B000642B7F3083120313C5008030C4000030E8
:1006C000C3000030C200992B831203134708803AFD
:1006D000FF0080307F02031D6F2B0130460203189C
:1006E000722B732B7F2B003083120313C500003055
:1006F000C4000030C3000030C200BB01992B83123C
:1007000003134608B6003608C100FF30C205FF30AB
:10071000C3057F30C4050030C505411C902B912BCB
:10072000922BC4174108B6000310360CB7003708E7
:10073000C5003B08B6003608C5044508B1004408AA
:10074000B0004308AF004208AE0008008312031354
:100750004B088039D0005008D8004B08D000500713
:10076000D1005108DA00CA1FB62BB72BB82B5A1488
:100770005A080319BC2BBD2BCD2B5A0A031DC12BC4
:10078000C22BCA2B0030CB000030CA000030C90099
:100790000030C800CA17CB01D52B0030CB00003089
:1007A000CA000030C9000030C8004F088039D000AE
:1007B0005008D900590858060319DF2BE02BE12B0C
:1007C00058174F08D0005007D1005108D900CE1F4C
:1007D000EA2BEB2BEC2B591459080319F02BF12BB6
:1007E000012C590A031DF52BF62BFE2B0030CF00F0
:1007F0000030CE000030CD000030CC00CE17CF014D
:10080000092C0030CF000030CE000030CD00003089
:10081000CC005A08590203180E2C0F2C532C581FC9
:10082000122C132C172C8030D0005008D8065A08F0
:10083000D0005008DB005908D0005008DA005B08EF
:10084000D0005008D9004808D0005008DB004C0800
:10085000D0005008C8005B08D0005008CC00490800
:10086000D0005008DB004D08D0005008C9005B08DC
:10087000D0005008CD004A08D0005008DB004E08D8
:10088000D0005008CA005B08D0005008CE004B08CA
:10089000D0005008DB004F08D0005008CB005B08A8
:1008A000D0005008CF00DB015908D000D101510819
:1008B000D3005A085002D200031CD3035308803AD5
:1008C000FF0080307F02031D672C1A305202031C88
:1008D0006A2C6B2CA82C831203134B084A0449047E
:1008E0004804031D742C762C0130772C0030D00086
:1008F0005008DB000030CB000030CA000030C900D7
:100900000030C8005908D0005008DA00B02C5B1C39
:100910008A2C8B2C942C5B08D0000310500C0138CF
:10092000D1005108DB00962C0310DB0C481C992CDD
:100930009A2C9B2CDB170130D0004B0DCB0CCA0C32
:10094000C90CC80CD00B9D2C0130D0005008DA0720
:100950008312031359085A02031CAF2CB02C872CA6
:10096000581BB32CB42CFF2C5A08031DB82CB92CDF
:10097000C22C0030CB000030CA000030C90000306B
:10098000C8002D2E4C08C8074D0803110318013E5E
:100990000319CB2CC9074E0803110318013E031994
:1009A000D22CCA074F0803110318013E0319D92C92
:1009B000CB074B1CDC2CDD2CB32D5B1CE02CE12C7D
:1009C000EA2C5B08D0000310500C0138D10051080C
:1009D000DB00EC2C0310DB0C481CEF2CF02CF12C72
:1009E000DB170130D0004B0DCB0CCA0CC90CC80C66
:1009F000D00BF32C0130D0005008DA07B32D4B0890
:100A0000803AFF004F08803A7F02031D112D4E08E7
:100A10004A02031D112D4D084902031D112D4C08DA
:100A200048020318142D152D6D2DFF30D000FF3016
:100A3000D100FF30D200FF30D3004C08D4004D0865
:100A4000D5004E08D6004F08D7004808D402490800
:100A5000031C490F2C2D2D2DD5024A08031C4A0FCB
:100A6000322D332DD6024B08031C4B0F382D392D58
:100A7000D7025408D00755080318550F402D412DB3
:100A8000D10756080318560F462D472DD207570891
:100A90000318570AD3075308CB005208CA0051085D
:100AA000C9005008C8008030D0005008D806DB09C3
:100AB000DB0A5B08031D5D2D5E2D7B2D0130C80711
:100AC000003003180130C907003003180130CA078D
:100AD000003003180130CB077B2D4C08C8024D08AD
:100AE000031C4D0FC9024E08031C4E0FCA024F08CB
:100AF000031C4F0FCB024B084A0449044804031D52
:100B0000822D832DAF2D5B08031D872D882DAF2DE2
:100B10000030CB000030CA000030C9000030C800EF
:100B20002D2E0130D0000310C80DC90DCA0DCB0DFC
:100B3000D00B932DDB1F9D2D9E2D9F2D48145B1CEC
:100B4000A22DA32DA62D0314DB0DA82D0310DB0D64
:100B50005A080319AC2DAD2DAF2D0130DA02CA1F92
:100B6000B22DB32D912DD901DB1FB72DB82DC62D78
:100B70005B087F390319BD2DBE2DC12DD901D90ABE
:100B8000C62D481CC42DC52DC62DBE2D59080319D0
:100B9000CA2DCB2DFF2D0130C807003003180130BE
:100BA000C907003003180130CA07003003180130AC
:100BB000CB074B1CDC2DDD2DFF2D4808D00049084C
:100BC000D1004A08D2004B08D3000130D400530DA5
:100BD000D30CD20CD10CD00CD40BE72D5308CB0086
:100BE0005208CA005108C9005008C8005A0A03191F
:100BF000FA2DFB2DFF2D0130D0005008DA075A0ADC
:100C00000319032E042E092E5A08031D082E092E3F
:100C1000172E0030CB000030CA000030C900003071
:100C2000C8005A08031D152E162E172ED8015A1C5F
:100C30001A2E1B2E1D2ECA17212E7F30D0005008D1
:100C4000CA055A08D0000310500CD1005108CB003F
:100C5000D81F2B2E2C2E2D2ECB17080083120313FA
:100C6000EE1B332E352E0130362E00308316031343
:100C7000AF002F08B300330803193F2E402E472E34
:100C800083120313ED09EE09ED0A0319EE0A83122C
:100C90006C0883160313AF002F0883120313A300FD
:100CA0006B080A128A1598230A128A1110308316CB
:100CB0000313B4002730B5000530AF002F08B20091
:100CC000A52E83160313350883120313A100831680
:100CD0000313340883120313A0006E08A3006D08E9
:100CE000A2000A128A15E0250A128A118312031340
:100CF00020082104031D7D2E7E2EBD2E013083167B
:100D00000313B2020A3083120313A0000030A100C3
:100D100083160313350883120313A30083160313EA
:100D2000340883120313A2000A128A15E0250A125E
:100D30008A1183120313210883160313B50083124B
:100D40000313200883160313B4003508803AFF000C
:100D500080307F02031DAE2E013034020318B12E05
:100D6000B22E612EBD2E20300A128A155F240A127F
:100D70008A11013083120313EF0283160313320822
:100D80003307AF00B001B00D3008803AB1008030B9
:100D90003102031DD12E831203136F088316031330
:100DA0002F020318D42ED52EDD2E0230831203130A
:100DB0006F020318DC2EDD2EB32E831603133308C7
:100DC0000319E32EE42EEA2E2D300A128A155F2431
:100DD0000A128A1183160313350883120313A10024
:100DE00083160313340883120313A0006E08A300B4
:100DF0006D08A2000A128A15E0250A128A118312D0
:100E000003132008303E0A128A155F240A128A1141
:100E100083160313350883120313A10083160313EB
:100E2000340883120313A0006E08A3006D08A2000B
:100E30000A128A151F250A128A1183120313210828
:100E4000EE002008ED000A30A0000030A10083165B
:100E50000313350883120313A30083160313340806
:100E600083120313A2000A128A15E0250A128A11BE
:100E700083120313210883160313B500831203138F
:100E8000200883160313B4003508803AFF00803031
:100E90007F02031D4D2F013034020318502F512FB4
:100EA000EA2E08008316031320080A128A112D2047
:100EB0000A128A110A128A15E8230A128A11831269
:100EC0000313A601A701013083160313B6003608E9
:100ED00083120313A8008316031322080A128A112F
:100EE0002D200A128A1183120313EB01EB0AEC0185
:100EF000831603132C080A128A112D200A128A1154
:100F0000831203136808EE006708ED0003308316B0
:100F10000313B600360883120313EF00831603137E
:100F200023080A128A112D200A128A118312031330
:100F3000EB01EB0A063083160313B6003608831262
:100F40000313EC00831603132D080A128A112D20B7
:100F50000A128A11831203132108EE002008ED0003
:100F6000033083160313B700370883120313EF000F
:100F70008316031323080A128A112D200A128A11DC
:100F800083120313EB01EB0A0C3083160313B60034
:100F9000360883120313EC00831603132E080A127B
:100FA0008A112D200A128A11831203136808EE0099
:100FB0006708ED00033083160313B7003708831268
:100FC0000313EF008316031323080A128A112D203E
:100FD0000A128A11732F0A128A110C280630831202
:100FE00003138100700871040319F72FF82FFE2FE7
:0E0FF0000130F0020030031CF103F102080092
:1010000008308A000408840A8207003420344334FC
:10101000203420342034203420344B342034203405
:0E102000203420342034463420342034003470
:1016C000750883120313A1007408A00008007208B3
:1016D000113E83120313A20073080318013E013E5A
:1016E000A3002308A1002208A0000800073400344A
:1016F00004340A340034003400340034003400343C
:10170000003400340D34103401347E088A007F0820
:1017100082000A128A1585230A128A158000840A1B
:1017200004087D0603190034FF0A0319FE0A892BF9
:1017300083120313A5002508A40006300310A40D8E
:10174000FF3E031D9E2B230824077F39803E0A128B
:101750008A15C5260A128A1508000B1DB02BB12B5D
:10176000B72B0B110A128A11EE270A128A1583125F
:1017700003130C1FBC2BBD2BC32B0C130A128A1591
:10178000CA230A128A157B088A007A0E8300FE0E8D
:101790007E0E0900831203131E08F600F701760877
:1017A000F4007708F5007408F700F60183160313B8
:1017B0001E087607F8000030031801307707F9009B
:1017C0007808F4007908F500831203139F140800C9
:1017D0008B13831603170814831603131F129F120B
:1017E0009F17831203131F083F3980389F00C330AF
:1017F0009F059E01831603139E01831203131F147A
:101800000B17831603130C178B17831203139F14E4
:10181000080083120313A800A401A5012008A20058
:10182000A3012208A6002308A700281C182C192CA5
:101830001F2C2608A4070318A50A2708A5070130AE
:101840000310A60DA70DFF3E031D202C0310A80CAE
:101850002808031D2C2C2D2C152C2508A10024084C
:10186000A0000800831603130810881008118811BF
:101870000812881208178817831603178901831620
:1018800003138601831203138601881628300A1277
:101890008A15C5260A128A150C300A128A15C52621
:1018A0000A128A1501300A128A15C5260A128A15EB
:1018B00002300A128A15C5260A128A1508008312F8
:1018C0000313A10008162108A00004300310A00C87
:1018D000FF3E031D662C08082006F039200688000C
:1018E00088120C3083120313A000A00B752C00008B
:1018F00083120313881608160F302105A00008086C
:101900002006F0392006880088120C308312031359
:10191000A000A00B892C0000831203138816080076
:10192000831203132708A9002908AA002708A90081
:101930002908A30026080A128A1598230A128A1574
:10194000B72C280884000A128A1500200A128A156A
:101950000A128A155F240A128A15013083120313B2
:10196000A9002908A8070130A9002908AA0783129D
:101970000313280884000A128A1500200A128A1507
:10198000003A031DC42CC52CA12C08007208831238
:101990000313A0007308A1000030A11BFF30A200B8
:1019A000A30001300A128A1544270A128A158312ED
:1019B00003132308B5002208B4002108B30020084F
:1019C000B2003F30B100E630B0006630AF006630A4
:1019D000AE000A128A1145200A128A1583120313D7
:1019E0003108CF003008CE002F08CD002E08CC00E3
:1019F0004230CB000030CA000030C9000030C800BF
:101A00000A128A11A6230A128A15831203134B089D
:101A1000DF004A08DE004908DD004808DC000A1241
:101A20008A1549260A128A15831203135D08EA00F3
:101A30005C08E9006A08E8006908E700080083120A
:101A40000313A601A31F252D262D2D2DA209A309C1
:101A5000A20A0319A30AA601A60AA11F302D312D3F
:101A6000362DA009A109A00A0319A10A2008210402
:101A700003193B2D3C2D6B2DA501A50A4A2D0130E4
:101A80000310A00DA10DFF3E031D402D0130A40049
:101A90002408A507A11F4D2D4E2D3F2D21082302FF
:101AA000031D542D20082202031C572D582D5E2D96
:101AB0002008A2022108031CA303A3020130031083
:101AC000A10CA00CFF3E031D5F2D0130A502031DDC
:101AD0006A2D6B2D4E2D260803196F2D702D752D37
:101AE000A209A309A20A0319A30A2308A100220834
:101AF000A00008000A128A1560230A128A158312B0
:101B000003132108F3002008F2007208A0007308F4
:101B1000A1000030A11BFF30A200A30001300A1277
:101B20008A1544270A128A15831203132308B50065
:101B30002208B4002108B3002008B2003D30B100F3
:101B4000C830B0003230AF000B30AE000A128A113C
:101B500045200A128A15831203133108CF0030087A
:101B6000CE002F08CD002E08CC00C230CB0048306C
:101B7000CA000030C9000030C8000A128A11A6232A
:101B80000A128A15831203134B08DF004A08DE008D
:101B90004908DD004808DC000A128A1549260A12A5
:101BA0008A15831203135D08F3005C08F2007308C2
:101BB000EA007208E9006A08E8006908E70008001E
:101BC00083120313A601A11FE62DE72DEE2DA00918
:101BD000A109A00A0319A10AA601A60AA31FF12DB3
:101BE000F22DFB2DA209A309A20A0319A30A0130B1
:101BF000A4002408A606A701A801200821040319AF
:101C0000022E032E3A2EA501A50A112E0130031033
:101C1000A00DA10DFF3E031D072E0130A4002408D6
:101C2000A507A11F142E152E062E01300310A70D97
:101C3000A80DFF3E031D162E21082302031D222E90
:101C400020082202031C252E262E2D2E2008A2025B
:101C50002108031CA303A302271401300310A10CC5
:101C6000A00CFF3E031D2E2E0130A502031D392EB0
:101C70003A2E152E260803193E2E3F2E442EA70974
:101C8000A809A70A0319A80A2808A1002708A00084
:101C900008000310831203135E0D5F0DE00060085F
:101CA000E6006608031D552E562E5F2E0030DF001D
:101CB0000030DE000030DD000030DC00C42E5C08A7
:101CC000E0005D08E1005E08E2005F08E3001F300D
:101CD0000310E30CE20CE10CE00CFF3E031D682E48
:101CE0006008E4006408E500DE17FF30DC05FF3023
:101CF000DD05FF30DE050030DF059630E602E61F29
:101D0000822E832E9D2E6608803A973E0318892ED8
:101D10008A2E8B2E562E01300310DF0CDE0CDD0CCC
:101D2000DC0CFF3E031D8C2E0130E0006008E6074E
:101D3000031D9B2E9C2E8B2EB42E20306602031C7E
:101D4000A22EA32EAF2E562E0130E0000310DC0D84
:101D5000DD0DDE0DDF0DE00BA62E0130E60266087C
:101D6000031DB32EB42EA42E65080319B82EB92E68
:101D7000C42EDC09DD09DE09DF09DC0A0319DD0AEE
:101D80000319DE0A0319DF0A080083120313A200F5
:101D900008122208A00004300310A00CFF3E031D0F
:101DA000CC2E08082006F03920068800881222036D
:101DB0000319DB2EDC2EE22E02302206031DE12E5B
:101DC000E22EED2E033083120313A1009730A00002
:101DD000A00BE82EA10BE82EF42E0C308312031377
:101DE000A000A00BF12E0000831203138816F03020
:101DF0002205A00020302006031DFF2E002F192FE2
:101E000008122208A00004300310A00CFF3E031D9E
:101E1000042F08082006F0392006880088120C30AC
:101E200083120313A000A00B132F000083120313CF
:101E3000881608120F302205A00008082006F03985
:101E400020068800881222030319272F282F2E2FFF
:101E500002302206031D2D2F2E2F392F033083121F
:101E60000313A1009730A000A00B342FA10B342F37
:101E7000402F0C3083120313A000A00B3D2F000055
:101E8000831203138816080083120313A80028087E
:101E900003194B2F4C2F602FA31F4F2F502F602F54
:101EA0002009AA002109AB002209AC002309AD00DA
:101EB000AA0A0319AB0A0319AC0A0319AD0A682F61
:101EC0002308AD002208AC002108AB002008AA00BE
:101ED0002308220421042004031D6F2F702F792F63
:101EE0000030A3000030A2000030A1000030A000AC
:101EF000FF2F9630A4002408A9008B2F0130A400E6
:101F00002408A90701300310AD0CAC0CAB0CAA0CD3
:101F1000FF3E031D832FFE302D05031D902F912FB3
:101F20007E2FAD2F0130A4002408A9070130AA0795
:101F3000003003180130AB07003003180130AC0744
:101F4000003003180130AD0701300310AD0CAC0CAC
:101F5000AB0CAA0CFF3E031DA52FFF302D05031D62
:101F6000B22FB32F922FBF2F0130A9020130A4004E
:101F70000310AA0DAB0DAC0DAD0DA40BB82FAC1B0F
:101F8000C22FC32FC92F023029020318C82FC92F0F
:101F9000B42F2918CC2FCD2FD52FFF30AA05FF3015
:101FA000AB057F30AC05FF30AD050310A90C290847
:101FB000A400A501A601A70118300310A40DA50DCA
:101FC000A60DA70DFF3E031DDD2F2408AA0425083A
:101FD000AB042608AC042708AD0428080319F12F28
:101FE000F22FF72FA31FF52FF62FF72FAD172D0880
:101FF000A3002C08A2002B08A1002A08A0000800BA
:04400E00D420FF3F7C
:00000C01F3
